:100000000C9463000C948B000C948B000C948B006C
:100010000C948B000C948B000C948B000C948B0034
:100020000C948B000C948B000C948B000C94A80205
:100030000C948B000C948B000C948B000C948B0014
:100040000C9466030C948B000C94E2040C94290528
:100050000C948B000C948B000C948B000C948B00F4
:100060000C948B000C948B000000000024002700EF
:100070002A0000000000250028002B0000000000DE
:1000800023002600290004040404040404040202DA
:100090000202020203030303030301020408102007
:1000A0004080010204081020010204081020000012
:1000B0000007000201000003040600000000000029
:1000C00000008D00EC0611241FBECFEFD4E0DEBF90
:1000D000CDBF11E0A0E0B1E0EAEAF0E102C0059096
:1000E0000D92A831B107D9F712E0A8E1B1E001C043
:1000F0001D92A630B107E1F710E0C6ECD0E004C0D5
:100100002297FE010E944F08C23CD107C9F70E9406
:100110003C070C9453080C940000CF93DF93C8E184
:10012000D1E0CE010E947301239681E0C033D8074D
:10013000C1F7DF91CF910895FF920F931F93F62E91
:100140008130910519F0079701F51BC07770E72FF3
:10015000F0E08F01000F111F0E0F1F1F085E1E4FD2
:10016000E050FF4F6081C80170E044EF51E024ECA3
:1001700039E00E942902C8016F2D70E00E94C10180
:1001800004C087EE91E00E94E1051F910F91FF905E
:100190000895EF92FF920F931F93CF93DF938C01FB
:1001A0007B0187EE91E00E94470602977CF187EE83
:1001B00091E00E947806EC01803891053CF134E032
:1001C000959587953A95E1F787709070F80191833E
:1001D000808387EE91E00E944706892BD1F387EE5A
:1001E00091E00E9478068038910584F48F779070B2
:1001F000CF70D070D695DC2FCC27D795C7958C2B98
:100200009D2BF7019183808381E001C080E0DF9125
:10021000CF911F910F91FF90EF900895EF92FF9271
:100220000F931F938B0167EEE62E61E0F62EBC0163
:100230006F70707053E0660F771F5A95E1F7606832
:10024000C801880F892F881F990B8770682BC701F9
:100250000E94B3060F77C701602F0E94B3061F915B
:100260000F91FF90EF900895DF93CF9300D000D0CF
:10027000CDB7DEB7CE010196BE016D5F7F4F0E9404
:10028000C900882361F087EE91E061E00E94B30627
:100290006B817C8189819A810E949C0006C06AE002
:1002A00070E080E090E00E94BA030F900F900F90F2
:1002B0000F90CF91DF9108950F931F9307EE11E0F8
:1002C000C80140E056E960E070E00E946405C801A2
:1002D0000E94A10680E890E060E870E00E940E01B4
:1002E0001F910F910895FC01809130018C3090F4A2
:1002F00080838F5F80933001815090E0FC01EE0F8E
:10030000FF1FE80FF91FEF5CFE4F8CED95E0928325
:10031000818308958FEF80830895FC0130813C3004
:1003200078F58181992787FD909548E850E0481B32
:10033000590B440F551F440F551F6417750784F060
:100340008281992787FD909548E552E0481B590B1B
:10035000440F551F440F551F641775070CF4AB016C
:100360002FB7F894832F90E0FC01EE0FFF1FE80FEA
:10037000F91FEF5CFE4F42505040528341832FBF24
:100380000895AF92BF92CF92DF92EF92FF920F93B8
:100390001F93CF93DF93EC019B0182E060327807DB
:1003A0000CF048C077FF03C020E030E005C0653B9B
:1003B000710514F024EB30E000D000D0B90188279B
:1003C00077FD8095982F2981332727FD3095E8E820
:1003D000AE2EB12CA21AB30AAA0CBB1CAA0CBB1CD1
:1003E000CC24B7FCC094DC2CEA81FF27E7FDF09514
:1003F00028E532E02E1B3F0B220F331F220F331F45
:10040000442737FD4095542FEDB7FEB72183328343
:100410004383548320E030E040E050E004EBE02EE2
:10042000F12C012D112D0E9475079B010F900F904B
:100430000F900F90CE01B9010E948D01DF91CF91F5
:100440001F910F91FF90EF90DF90CF90BF90AF90F2
:100450000895CF92DF92EF92FF921F93CF93DF9395
:10046000EC01162F7A01690188818C3008F064C094
:10047000862F61E00E944E04888190E0FC01EE0F1F
:10048000FF1FE80FF91FEF5CFE4F1F738081807C18
:10049000812B808380E292E08E199F0964E070E0F6
:1004A0000E94E907698380E699E08C199D0964E060
:1004B00070E00E94E9076A83A8818A2F6CE00E949D
:1004C000DD07682F70E0AB01440F551F460F571F23
:1004D000440F551F440F551F20E030E0C901840F21
:1004E000951FFC01EE0FFF1FE80FF91FEF5CFE4F99
:1004F000808186FD15C02F5F3F4F2C30310571F78D
:1005000024C01092800082E08093810010928500C8
:1005100010928400B19A80916F00826080936F0086
:100520008A2F90E0FC01EE0FFF1FE80FF91FEF5C30
:10053000FE4F8081806480838881DF91CF911F91FD
:10054000FF90EF90DF90CF900895672BD1F2E8CF26
:100550001F920F920FB60F9211242F933F934F9338
:100560005F936F937F938F939F93AF93BF93EF931B
:10057000FF938091550187FF05C01092850010926E
:1005800084002BC020915501332727FD30958091A1
:10059000300190E02817390704F58091550199271B
:1005A00087FD9095FC01EE0FFF1FE80FF91FEF5C30
:1005B000FE4F808186FF11C080915501992787FDEC
:1005C0009095FC01EE0FFF1FE80FF91FEF5CFE4F47
:1005D00080818F7360E00E948D04809155018F5F50
:1005E0008093550120915501332727FD3095809147
:1005F000300190E0281739070CF04EC0809155016A
:100600008C300CF049C0209184003091850080919D
:100610005501992787FD9095FC01EE0FFF1FE80F0C
:10062000F91FEF5CFE4F81819281280F391F3093B3
:1006300089002093880080915501992787FD909526
:10064000FC01EE0FFF1FE80FF91FEF5CFE4F8081EA
:1006500086FF2BC080915501992787FD9095FC015D
:10066000EE0FFF1FE80FF91FEF5CFE4F80818F73C5
:1006700061E00E948D0419C080E29EE405C0809173
:10068000840090918500049690938900809388005F
:100690008FEF8093550109C080918400909185006F
:1006A000049680529E4440F3EACFFF91EF91BF91B0
:1006B000AF919F918F917F916F915F914F913F91FA
:1006C0002F910F900FBE0F901F9018951F920F92B1
:1006D0000FB60F9211242F933F934F935F936F9315
:1006E0007F938F939F93AF93BF9320915A01309143
:1006F0005B0140915C0150915D0170915E01DA01F6
:10070000C9010296A11DB11D672F6A5F6D3730F0D8
:100710006D57DA01C9010396A11DB11D60935E01F9
:1007200080935A0190935B01A0935C01B0935D01AB
:100730008091560190915701A0915801B0915901B3
:100740000196A11DB11D8093560190935701A0936E
:100750005801B0935901BF91AF919F918F917F91B3
:100760006F915F914F913F912F910F900FBE0F901E
:100770001F9018959B01AC017FB7F89480915601AA
:1007800090915701A0915801B091590166B5A89B6D
:1007900005C06F3F19F00196A11DB11D7FBFBA2F93
:1007A000A92F982F8827860F911DA11DB11D63E0E9
:1007B000880F991FAA1FBB1F6A95D1F7BC012DC0D6
:1007C000FFB7F8948091560190915701A09158017C
:1007D000B0915901E6B5A89B05C0EF3F19F001960D
:1007E000A11DB11DFFBFBA2FA92F982F88278E0FEB
:1007F000911DA11DB11DE3E0880F991FAA1FBB1F0A
:10080000EA95D1F7861B970B885E9340C8F221507A
:1008100030404040504068517C4F21153105410522
:10082000510571F60895789484B5826084BD84B5CD
:10083000816084BD85B5826085BD85B5816085BDDB
:10084000EEE6F0E0808181608083E1E8F0E01082F4
:10085000808182608083808181608083E0E8F0E035
:10086000808181608083E1EBF0E08081846080831F
:10087000E0EBF0E0808181608083EAE7F0E0808156
:1008800084608083808182608083808181608083B6
:100890008081806880831092C1000895CF93DF9398
:1008A000482F50E0CA0186569F4FFC0134914A57A9
:1008B0005F4FFA018491882369F190E0880F991FB6
:1008C000FC01E859FF4FA591B491FC01EE58FF4F90
:1008D000C591D491662351F42FB7F8948C91932F3E
:1008E000909589238C93888189230BC0623061F4B1
:1008F0002FB7F8948C91932F909589238C938881AE
:10090000832B88832FBF06C09FB7F8948C91832BCD
:100910008C939FBFDF91CF910895482F50E0CA017B
:1009200082559F4FFC012491CA0186569F4FFC01BE
:1009300094914A575F4FFA013491332309F440C030
:10094000222351F1233071F0243028F42130A1F01A
:10095000223011F514C02630B1F02730C1F0243018
:10096000D9F404C0809180008F7703C0809180000B
:100970008F7D8093800010C084B58F7702C084B5CE
:100980008F7D84BD09C08091B0008F7703C08091B6
:10099000B0008F7D8093B000E32FF0E0EE0FFF1FDB
:1009A000EE58FF4FA591B4912FB7F894662321F428
:1009B0008C919095892302C08C91892B8C932FBFA9
:1009C000089508951F920F920FB60F9211242F933E
:1009D0003F934F938F939F93EF93FF934091C60064
:1009E00020919F013091A0012F5F3F4F2F733070F6
:1009F0008091A1019091A2012817390759F0E09147
:100A00009F01F091A001E15AFE4F40833093A00175
:100A100020939F01FF91EF919F918F914F913F9173
:100A20002F910F900FBE0F901F901895E091F3013A
:100A3000F091F401E05CFF4F81919191208131812F
:100A4000821B930B8F739070892B11F00E94E1042D
:100A500008951F920F920FB60F9211242F933F9378
:100A60008F939F93EF93FF932091E3013091E401E3
:100A70008091E5019091E6012817390731F48091C2
:100A8000C1008F7D8093C10014C0E091E501F09119
:100A9000E601ED55FE4F20818091E5019091E60140
:100AA00001968F7390709093E6018093E5012093F7
:100AB000C600FF91EF919F918F913F912F910F90E1
:100AC0000FBE0F901F901895AF92BF92DF92EF92DA
:100AD000FF920F931F93CF93DF93EC017A018B0169
:100AE000DD24D39491E0A92EB12CEC89FD89DD2081
:100AF00069F0C5010E8C02C0880F991F0A94E2F7B5
:100B0000808360E874E88EE190E005C0108260E4C4
:100B100072E48FE090E0A80197010E94FC07215049
:100B2000304040405040569547953795279580E195
:100B30002030380720F0DD2011F0DD24D6CFE88901
:100B4000F9893083EA89FB892083EE89FF89408116
:100B500021E030E0C9010A8C02C0880F991F0A9475
:100B6000E2F7482B4083EE89FF894081C9010B8C55
:100B700002C0880F991F0A94E2F7482B4083EE8940
:100B8000FF894081C9010C8C02C0880F991F0A940B
:100B9000E2F7482B4083EE89FF8980810D8C02C0EB
:100BA000220F331F0A94E2F7209528232083DF9138
:100BB000CF911F910F91FF90EF90DF90BF90AF907A
:100BC0000895CF93DF93DC011E968D919C911F9722
:100BD000EC01C05CDF4FFC01EE5BFF4F28813981E7
:100BE0008081918128173907C9F75696ED91FC91BC
:100BF0005797408121E030E0C9015A960C905A97EE
:100C000002C0880F991F0A94E2F78095842380839D
:100C10005696ED91FC9157974081C9015B960C90D7
:100C20005B9702C0880F991F0A94E2F7809584238E
:100C300080835696ED91FC9157974081C9015C964F
:100C40000C905C9702C0880F991F0A94E2F7809578
:100C5000842380835696ED91FC91579780815D9611
:100C60000C905D9702C0220F331F0A94E2F7209583
:100C7000282320831C96ED91FC911D97EE5BFF4F7E
:100C80008081918192938293DF91CF910895DC01CD
:100C90001C96ED91FC911D97E05CFF4F21913191E5
:100CA00080819181281B390B2F733070C901089501
:100CB000DC011C96ED91FC911D97E05CFF4F2081BB
:100CC0003181E054F040DF01AE5BBF4F8D919C91CC
:100CD00011972817390719F42FEF3FEF07C08D91AF
:100CE0009C91E80FF91F8081282F30E0C9010895F9
:100CF000DC011C96ED91FC911D97E05CFF4F20817B
:100D00003181E054F040DF01AE5BBF4F8D919C918B
:100D100011972817390719F42FEF3FEF10C08D9165
:100D20009C911197E80FF91F20818D919C9111974B
:100D300001968F73907011969C938E9330E0C90149
:100D40000895FC0186859785DC01A05CBF4FFC01FE
:100D5000EE5BFF4F2D913C91119780819181281777
:100D60003907C1F70895CF93DF93EC01EE85FF8536
:100D7000E05CFF4F20813181E054F0402F5F3F4F16
:100D80002F733070DF01AE5BBF4F8D919C91119737
:100D900028173907D1F3E05CFF4F80819181E0543F
:100DA000F040E80FF91F6083EE85FF85E05CFF4FA0
:100DB00031832083EE89FF89208181E090E00D8CD2
:100DC00002C0880F991F0A94E2F7282B208381E044
:100DD00090E0DF91CF9108951092EA011092E9011D
:100DE00088EE93E0A0E0B0E08093EB019093EC01FB
:100DF000A093ED01B093EE018CE091E09093E801B7
:100E00008093E7018FE591E09093F4018093F301E3
:100E100083EA91E09093F6018093F50185EC90E0F0
:100E20009093F8018093F70184EC90E09093FA019D
:100E30008093F90180EC90E09093FC018093FB019A
:100E400081EC90E09093FE018093FD0186EC90E0B0
:100E5000909300028093FF0184E08093010283E07D
:100E60008093020287E08093030285E0809304026E
:100E700081E0809305020895CF93DF930E941304CD
:100E80000E945C01C6E1D5E00E9434012097E1F3A5
:100E90000E941605F9CFCF92DF92EF92FF920F9347
:100EA0001F93CF93DF937C016B018A01C0E0D0E0F8
:100EB0000FC0D6016D916D01D701ED91FC910190AC
:100EC000F081E02DC7010995C80FD91F01501040CE
:100ED0000115110571F7CE01DF91CF911F910F918F
:100EE000FF90EF90DF90CF9008952F923F924F9216
:100EF0005F926F927F928F929F92AF92BF92CF92AA
:100F0000DF92EF92FF920F931F93DF93CF93CDB7B2
:100F1000DEB73B014C0119012A016D897E898F8959
:100F2000988D6A197B098C099D09621A730A840AD3
:100F3000950AA40193010E94BE07E218F308040970
:100F40001509A80197010E941E082A0D3B1D4C1D82
:100F50005D1DB901CA01CF91DF911F910F91FF90E3
:100F6000EF90DF90CF90BF90AF909F908F907F9049
:100F70006F905F904F903F902F900895629FD001A7
:100F8000739FF001829FE00DF11D649FE00DF11D44
:100F9000929FF00D839FF00D749FF00D659FF00DF3
:100FA0009927729FB00DE11DF91F639FB00DE11DE0
:100FB000F91FBD01CF0111240895991B79E004C0E8
:100FC000991F961708F0961B881F7A95C9F7809588
:100FD000089597FB092E07260AD077FD04D049D043
:100FE00006D000201AF4709561957F4F0895F6F7AA
:100FF000909581959F4F0895A1E21A2EAA1BBB1BC5
:10100000FD010DC0AA1FBB1FEE1FFF1FA217B307D4
:10101000E407F50720F0A21BB30BE40BF50B661FEA
:10102000771F881F991F1A9469F7609570958095AE
:1010300090959B01AC01BD01CF01089597FB092E4E
:1010400005260ED057FD04D0D7DF0AD0001C38F497
:1010500050954095309521953F4F4F4F5F4F0895E4
:10106000F6F790958095709561957F4F8F4F9F4FC4
:101070000895AA1BBB1B51E107C0AA1FBB1FA617DF
:10108000B70710F0A61BB70B881F991F5A95A9F731
:1010900080959095BC01CD010895EE0FFF1F05903E
:0A10A000F491E02D0994F894FFCFBD
:1010AA0002040708090A0B0C00000000B3064B07EC
:0810BA00470678065806A1065E
:00000001FF
